{
  "transactions": [
    {
      "hash": "0x2a374175a37c7e17da35ccecb9ad88e8b4db3e0c1199e0cb4a6c7a2600f03814",
      "transactionType": "CALL",
      "contractName": null,
      "contractAddress": "0xe7f1725e7734ce288f8367e1bb143e90bb3f0512",
      "function": "createMarket(string,string,string,uint256)",
      "arguments": [
        "Will Bitcoin exceed $100,000 by end of 2025?",
        "This market resolves to YES if Bitcoin trades above $100,000 USD on any major exchange at any point before the resolution date.",
        "CoinMarketCap BTC/USD price",
        "1808273826"
      ],
      "transaction": {
        "from": "0xf39fd6e51aad88f6f4ce6ab8827279cfffb92266",
        "to": "0xe7f1725e7734ce288f8367e1bb143e90bb3f0512",
        "gas": "0x84d40",
        "value": "0x0",
        "input": "0x76e00406000000000000000000000000000000000000000000000000000000000000008000000000000000000000000000000000000000000000000000000000000000e00000000000000000000000000000000000000000000000000000000000000180000000000000000000000000000000000000000000000000000000006bc811a2000000000000000000000000000000000000000000000000000000000000002c57696c6c20426974636f696e2065786365656420243130302c30303020627920656e64206f6620323032353f0000000000000000000000000000000000000000000000000000000000000000000000000000000000000000000000000000007f54686973206d61726b6574207265736f6c76657320746f2059455320696620426974636f696e207472616465732061626f766520243130302c30303020555344206f6e20616e79206d616a6f722065786368616e676520617420616e7920706f696e74206265666f726520746865207265736f6c7574696f6e20646174652e00000000000000000000000000000000000000000000000000000000000000001b436f696e4d61726b6574436170204254432f5553442070726963650000000000",
        "nonce": "0x2",
        "chainId": "0x53e"
      },
      "additionalContracts": [],
      "isFixedGasLimit": false
    }
  ],
  "receipts": [
    {
      "status": "0x1",
      "cumulativeGasUsed": "0x5ad2a",
      "logs": [
        {
          "address": "0xe7f1725e7734ce288f8367e1bb143e90bb3f0512",
          "topics": [
            "0x2d1e9ad45dbe8e898e0374deebf2a661b2ae7c1855d2a29507d584c35d287c75",
            "0x0000000000000000000000000000000000000000000000000000000000000001"
          ],
          "data": "0x0000000000000000000000000000000000000000000000000000000000000040000000000000000000000000000000000000000000000000000000006bc811a2000000000000000000000000000000000000000000000000000000000000002c57696c6c20426974636f696e2065786365656420243130302c30303020627920656e64206f6620323032353f0000000000000000000000000000000000000000",
          "blockHash": "0x98368e9d0d4cf3a0552619e30c99ba24dda1b009cdedd53ac7a00bac41ed197b",
          "blockNumber": "0x3",
          "blockTimestamp": "0x69e6de53",
          "transactionHash": "0x2a374175a37c7e17da35ccecb9ad88e8b4db3e0c1199e0cb4a6c7a2600f03814",
          "transactionIndex": "0x0",
          "logIndex": "0x0",
          "removed": false
        }
      ],
      "logsBloom": "0x00000000000000000000000000000000000080000000000000000000000000000000000000000000000000000000000010000000000000000000000000040000000000000000000000000000000000000000000000040000000000000000000000000000000000000000000000000000000000000000000000000002000000020000000000000000000000000000000000000000000000000000000000000000000000000000000000000000000000000000000000000000000000000000000000000000000000000000000000001000000000000000000000000000000040000000000000000000000000000000000000000000000000800000000000000000",
      "type": "0x2",
      "transactionHash": "0x2a374175a37c7e17da35ccecb9ad88e8b4db3e0c1199e0cb4a6c7a2600f03814",
      "transactionIndex": "0x0",
      "blockHash": "0x98368e9d0d4cf3a0552619e30c99ba24dda1b009cdedd53ac7a00bac41ed197b",
      "blockNumber": "0x3",
      "gasUsed": "0x5ad2a",
      "effectiveGasPrice": "0x2f8316ab",
      "blobGasPrice": "0x1",
      "from": "0xf39fd6e51aad88f6f4ce6ab8827279cfffb92266",
      "to": "0xe7f1725e7734ce288f8367e1bb143e90bb3f0512",
      "contractAddress": null
    }
  ],
  "libraries": [],
  "pending": [],
  "returns": {},
  "timestamp": 1776737875752,
  "chain": 1342,
  "commit": null
}