{
  "transactions": [
    {
      "hash": "0xf652feb564fe75d14a0d364d008d45ef0cf9086a1f3bd7defbcd7feb2a92e734",
      "transactionType": "CALL",
      "contractName": null,
      "contractAddress": "0xda831f98435d4774c743f7ef39021f3e0ccd6cc4",
      "function": "createMarket(string,string,string,uint256)",
      "arguments": [
        "Will Bitcoin exceed $100,000 by end of 2025?",
        "This market resolves to YES if Bitcoin trades above $100,000 USD on any major exchange at any point before the resolution date.",
        "CoinMarketCap BTC/USD price",
        "1808316940"
      ],
      "transaction": {
        "from": "0xc5595117dde8d2ab91e955c79ca486300bcec8b6",
        "to": "0xda831f98435d4774c743f7ef39021f3e0ccd6cc4",
        "gas": "0x84d40",
        "value": "0x0",
        "input": "0x76e00406000000000000000000000000000000000000000000000000000000000000008000000000000000000000000000000000000000000000000000000000000000e00000000000000000000000000000000000000000000000000000000000000180000000000000000000000000000000000000000000000000000000006bc8ba0c000000000000000000000000000000000000000000000000000000000000002c57696c6c20426974636f696e2065786365656420243130302c30303020627920656e64206f6620323032353f0000000000000000000000000000000000000000000000000000000000000000000000000000000000000000000000000000007f54686973206d61726b6574207265736f6c76657320746f2059455320696620426974636f696e207472616465732061626f766520243130302c30303020555344206f6e20616e79206d616a6f722065786368616e676520617420616e7920706f696e74206265666f726520746865207265736f6c7574696f6e20646174652e00000000000000000000000000000000000000000000000000000000000000001b436f696e4d61726b6574436170204254432f5553442070726963650000000000",
        "nonce": "0x5",
        "chainId": "0x4cef52"
      },
      "additionalContracts": [],
      "isFixedGasLimit": false
    }
  ],
  "receipts": [
    {
      "status": "0x1",
      "cumulativeGasUsed": "0x2533fe",
      "logs": [
        {
          "address": "0xda831f98435d4774c743f7ef39021f3e0ccd6cc4",
          "topics": [
            "0x2d1e9ad45dbe8e898e0374deebf2a661b2ae7c1855d2a29507d584c35d287c75",
            "0x0000000000000000000000000000000000000000000000000000000000000001"
          ],
          "data": "0x0000000000000000000000000000000000000000000000000000000000000040000000000000000000000000000000000000000000000000000000006bc8ba0c000000000000000000000000000000000000000000000000000000000000002c57696c6c20426974636f696e2065786365656420243130302c30303020627920656e64206f6620323032353f0000000000000000000000000000000000000000",
          "blockHash": "0x5fe16931ac32eefbf54c43504e1d7f95db4adfd0a980b0f2f3c9d6db130e9b15",
          "blockNumber": "0x248883f",
          "blockTimestamp": "0x69e78699",
          "transactionHash": "0xf652feb564fe75d14a0d364d008d45ef0cf9086a1f3bd7defbcd7feb2a92e734",
          "transactionIndex": "0x13",
          "logIndex": "0x43",
          "removed": false
        }
      ],
      "logsBloom": "0x00000000000000000000000000000000000080000000000800000000000000000000000000000000000000000000000000000000000000000000000000040000000000000000000000000000000000000000000000040800000000000000000000000000000000000000000000000000000000000000000000000002000000020000000000000000000000000000000000000000000010000000000000000000000000000000000000000000000000000000000000000000000000000000000000000000000000000000000000000000000000000000000000000000000040000000000000000000000000000000000000000000000000000000000000000000",
      "type": "0x2",
      "transactionHash": "0xf652feb564fe75d14a0d364d008d45ef0cf9086a1f3bd7defbcd7feb2a92e734",
      "transactionIndex": "0x13",
      "blockHash": "0x5fe16931ac32eefbf54c43504e1d7f95db4adfd0a980b0f2f3c9d6db130e9b15",
      "blockNumber": "0x248883f",
      "gasUsed": "0x5ad2a",
      "effectiveGasPrice": "0x4a8270a40",
      "from": "0xc5595117dde8d2ab91e955c79ca486300bcec8b6",
      "to": "0xda831f98435d4774c743f7ef39021f3e0ccd6cc4",
      "contractAddress": null
    }
  ],
  "libraries": [],
  "pending": [],
  "returns": {},
  "timestamp": 1776780955629,
  "chain": 5042002,
  "commit": null
}