{
  "transactions": [
    {
      "hash": "0xe382b65cbe788aa0bb2a4db70b2a493c0af008165d09638cb5e50eeeee093587",
      "transactionType": "CALL",
      "contractName": null,
      "contractAddress": "0xda831f98435d4774c743f7ef39021f3e0ccd6cc4",
      "function": "createMarket(string,string,string,uint256)",
      "arguments": [
        "Will Man City win the Premier League over Arsenal?",
        "This market resolves to YES if Manchester City finishes above Arsenal in the 2025/26 Premier League table.",
        "Official Premier League standings",
        "1780272000"
      ],
      "transaction": {
        "from": "0xc5595117dde8d2ab91e955c79ca486300bcec8b6",
        "to": "0xda831f98435d4774c743f7ef39021f3e0ccd6cc4",
        "value": "0x0",
        "input": "0x76e00406000000000000000000000000000000000000000000000000000000000000008000000000000000000000000000000000000000000000000000000000000000e00000000000000000000000000000000000000000000000000000000000000180000000000000000000000000000000000000000000000000000000006a1ccb80000000000000000000000000000000000000000000000000000000000000003257696c6c204d616e20436974792077696e20746865205072656d696572204c6561677565206f76657220417273656e616c3f0000000000000000000000000000000000000000000000000000000000000000000000000000000000000000006a54686973206d61726b6574207265736f6c76657320746f20594553206966204d616e6368657374657220436974792066696e69736865732061626f766520417273656e616c20696e2074686520323032352f3236205072656d696572204c6561677565207461626c652e0000000000000000000000000000000000000000000000000000000000000000000000000000000000000000000000000000000000214f6666696369616c205072656d696572204c6561677565207374616e64696e677300000000000000000000000000000000000000000000000000000000000000",
        "nonce": "0x6",
        "chainId": "0x4cef52"
      },
      "additionalContracts": [],
      "isFixedGasLimit": false
    }
  ],
  "receipts": [
    {
      "status": "0x1",
      "cumulativeGasUsed": "0x1d6665",
      "logs": [
        {
          "address": "0xda831f98435d4774c743f7ef39021f3e0ccd6cc4",
          "topics": [
            "0x2d1e9ad45dbe8e898e0374deebf2a661b2ae7c1855d2a29507d584c35d287c75",
            "0x0000000000000000000000000000000000000000000000000000000000000002"
          ],
          "data": "0x0000000000000000000000000000000000000000000000000000000000000040000000000000000000000000000000000000000000000000000000006a1ccb80000000000000000000000000000000000000000000000000000000000000003257696c6c204d616e20436974792077696e20746865205072656d696572204c6561677565206f76657220417273656e616c3f0000000000000000000000000000",
          "blockHash": "0x00433d96870bf61125f8c565ab948a93c777111a2c5de0e56c497c0d481632c9",
          "blockNumber": "0x24915a1",
          "blockTimestamp": "0x69e7e405",
          "transactionHash": "0xe382b65cbe788aa0bb2a4db70b2a493c0af008165d09638cb5e50eeeee093587",
          "transactionIndex": "0xc",
          "logIndex": "0x1d",
          "removed": false
        }
      ],
      "logsBloom": "0x04000000000000000000000000000000000080000000000800000000000000000000000000000000000000000000000000000000000000000000000000000000000000000000000000000000000000000000000000000800000000000000000000000000000000000000000000000000000000000000000000000002000000020000000000000000000000000000000000000000000010000000000000000000000000000000000000000100000000000000000000000000000000000000000000000000000000000000000000000000000000000000000000000000000000000000000000000000000000000000000000000000008000000000000000000000",
      "type": "0x0",
      "transactionHash": "0xe382b65cbe788aa0bb2a4db70b2a493c0af008165d09638cb5e50eeeee093587",
      "transactionIndex": "0xc",
      "blockHash": "0x00433d96870bf61125f8c565ab948a93c777111a2c5de0e56c497c0d481632c9",
      "blockNumber": "0x24915a1",
      "gasUsed": "0x617db",
      "effectiveGasPrice": "0x4a8194ea0",
      "from": "0xc5595117dde8d2ab91e955c79ca486300bcec8b6",
      "to": "0xda831f98435d4774c743f7ef39021f3e0ccd6cc4",
      "contractAddress": null
    }
  ],
  "libraries": [],
  "pending": [],
  "returns": {},
  "timestamp": 1776804870513,
  "chain": 5042002,
  "commit": null
}